{
  "abi": [
    {
      "inputs": [
        {
          "internalType": "address",
          "name": "_ETHPoolToken",
          "type": "address"
        }
      ],
      "stateMutability": "nonpayable",
      "type": "constructor"
    },
    {
      "inputs": [],
      "name": "ETHPool_AmtWithdrawnGreaterThanContribution",
      "type": "error"
    },
    {
      "inputs": [],
      "name": "ETHPool_CancelETHPoolTimingError",
      "type": "error"
    },
    {
      "inputs": [],
      "name": "ETHPool_NoContributionToRefund",
      "type": "error"
    },
    {
      "inputs": [],
      "name": "ETHPool_NonCreatorTeamAddRewardAttempt",
      "type": "error"
    },
    {
      "inputs": [],
      "name": "ETHPool_NotActiveAnymore",
      "type": "error"
    },
    {
      "inputs": [],
      "name": "ETHPool_OutOfETHPoolStartAndEndTime",
      "type": "error"
    },
    {
      "inputs": [],
      "name": "ETHPool_RequestedETHPoolLesserThan90days",
      "type": "error"
    },
    {
      "inputs": [],
      "name": "ETHPool_StartAtLesserThanToday",
      "type": "error"
    },
    {
      "inputs": [],
      "name": "ETHPool_StartDateGreaterThanEnd",
      "type": "error"
    },
    {
      "inputs": [],
      "name": "ETHPool_StillActive",
      "type": "error"
    },
    {
      "inputs": [],
      "name": "ETHPool__RefundToUserFailed",
      "type": "error"
    },
    {
      "inputs": [],
      "name": "ETHPool__TokenTransferToContractFailed",
      "type": "error"
    },
    {
      "inputs": [],
      "name": "ETHPool__TokenTransferToUserFailed",
      "type": "error"
    },
    {
      "anonymous": false,
      "inputs": [
        {
          "indexed": true,
          "internalType": "uint256",
          "name": "id",
          "type": "uint256"
        },
        {
          "indexed": true,
          "internalType": "address",
          "name": "caller",
          "type": "address"
        },
        {
          "indexed": false,
          "internalType": "uint256",
          "name": "amount",
          "type": "uint256"
        }
      ],
      "name": "Contribute",
      "type": "event"
    },
    {
      "anonymous": false,
      "inputs": [
        {
          "indexed": false,
          "internalType": "uint256",
          "name": "id",
          "type": "uint256"
        },
        {
          "indexed": true,
          "internalType": "address",
          "name": "creator",
          "type": "address"
        },
        {
          "indexed": false,
          "internalType": "uint32",
          "name": "startAt",
          "type": "uint32"
        },
        {
          "indexed": false,
          "internalType": "uint32",
          "name": "endAt",
          "type": "uint32"
        }
      ],
      "name": "LaunchETHPool",
      "type": "event"
    },
    {
      "anonymous": false,
      "inputs": [
        {
          "indexed": true,
          "internalType": "address",
          "name": "previousOwner",
          "type": "address"
        },
        {
          "indexed": true,
          "internalType": "address",
          "name": "newOwner",
          "type": "address"
        }
      ],
      "name": "OwnershipTransferred",
      "type": "event"
    },
    {
      "anonymous": false,
      "inputs": [
        {
          "indexed": false,
          "internalType": "uint256",
          "name": "id",
          "type": "uint256"
        },
        {
          "indexed": true,
          "internalType": "address",
          "name": "caller",
          "type": "address"
        },
        {
          "indexed": false,
          "internalType": "uint256",
          "name": "amount",
          "type": "uint256"
        }
      ],
      "name": "RefundETHPool",
      "type": "event"
    },
    {
      "anonymous": false,
      "inputs": [
        {
          "indexed": false,
          "internalType": "uint256",
          "name": "id",
          "type": "uint256"
        }
      ],
      "name": "StoppedETHPool",
      "type": "event"
    },
    {
      "anonymous": false,
      "inputs": [
        {
          "indexed": true,
          "internalType": "uint256",
          "name": "id",
          "type": "uint256"
        },
        {
          "indexed": false,
          "internalType": "uint256",
          "name": "amount",
          "type": "uint256"
        }
      ],
      "name": "TeamRewardSupplied",
      "type": "event"
    },
    {
      "anonymous": false,
      "inputs": [
        {
          "indexed": true,
          "internalType": "uint256",
          "name": "id",
          "type": "uint256"
        },
        {
          "indexed": true,
          "internalType": "address",
          "name": "caller",
          "type": "address"
        },
        {
          "indexed": false,
          "internalType": "uint256",
          "name": "amount",
          "type": "uint256"
        }
      ],
      "name": "Withdraw",
      "type": "event"
    },
    {
      "inputs": [
        {
          "internalType": "uint256",
          "name": "_id",
          "type": "uint256"
        },
        {
          "internalType": "uint256",
          "name": "_amount",
          "type": "uint256"
        }
      ],
      "name": "addRewardETHPool",
      "outputs": [],
      "stateMutability": "nonpayable",
      "type": "function"
    },
    {
      "inputs": [
        {
          "internalType": "uint256",
          "name": "_id",
          "type": "uint256"
        },
        {
          "internalType": "uint256",
          "name": "_amount",
          "type": "uint256"
        }
      ],
      "name": "contribute",
      "outputs": [],
      "stateMutability": "nonpayable",
      "type": "function"
    },
    {
      "inputs": [
        {
          "internalType": "uint256",
          "name": "_id",
          "type": "uint256"
        }
      ],
      "name": "getETHPool",
      "outputs": [
        {
          "components": [
            {
              "internalType": "address",
              "name": "creator",
              "type": "address"
            },
            {
              "internalType": "uint256",
              "name": "pool_size",
              "type": "uint256"
            },
            {
              "internalType": "uint256",
              "name": "startAt",
              "type": "uint256"
            },
            {
              "internalType": "uint32",
              "name": "endAt",
              "type": "uint32"
            },
            {
              "internalType": "bool",
              "name": "active",
              "type": "bool"
            }
          ],
          "internalType": "struct IETHPool.ETHPool",
          "name": "ethPool",
          "type": "tuple"
        }
      ],
      "stateMutability": "view",
      "type": "function"
    },
    {
      "inputs": [
        {
          "internalType": "uint256",
          "name": "_id",
          "type": "uint256"
        }
      ],
      "name": "getUserBalance",
      "outputs": [
        {
          "internalType": "uint256",
          "name": "_amount",
          "type": "uint256"
        }
      ],
      "stateMutability": "view",
      "type": "function"
    },
    {
      "inputs": [
        {
          "internalType": "uint32",
          "name": "_startAt",
          "type": "uint32"
        },
        {
          "internalType": "uint32",
          "name": "_endAt",
          "type": "uint32"
        }
      ],
      "name": "launchETHPool",
      "outputs": [],
      "stateMutability": "nonpayable",
      "type": "function"
    },
    {
      "inputs": [],
      "name": "owner",
      "outputs": [
        {
          "internalType": "address",
          "name": "",
          "type": "address"
        }
      ],
      "stateMutability": "view",
      "type": "function"
    },
    {
      "inputs": [
        {
          "internalType": "uint256",
          "name": "_id",
          "type": "uint256"
        }
      ],
      "name": "refundETHPool",
      "outputs": [],
      "stateMutability": "nonpayable",
      "type": "function"
    },
    {
      "inputs": [],
      "name": "renounceOwnership",
      "outputs": [],
      "stateMutability": "nonpayable",
      "type": "function"
    },
    {
      "inputs": [],
      "name": "s_ETHPoolToken",
      "outputs": [
        {
          "internalType": "contract IERC20",
          "name": "",
          "type": "address"
        }
      ],
      "stateMutability": "view",
      "type": "function"
    },
    {
      "inputs": [
        {
          "internalType": "uint256",
          "name": "_id",
          "type": "uint256"
        }
      ],
      "name": "stopETHPool",
      "outputs": [],
      "stateMutability": "nonpayable",
      "type": "function"
    },
    {
      "inputs": [
        {
          "internalType": "address",
          "name": "newOwner",
          "type": "address"
        }
      ],
      "name": "transferOwnership",
      "outputs": [],
      "stateMutability": "nonpayable",
      "type": "function"
    },
    {
      "inputs": [
        {
          "internalType": "uint256",
          "name": "_id",
          "type": "uint256"
        },
        {
          "internalType": "uint256",
          "name": "_amount",
          "type": "uint256"
        }
      ],
      "name": "withdraw",
      "outputs": [],
      "stateMutability": "nonpayable",
      "type": "function"
    }
  ],
  "bytecode": {
    "object": "0x608060405234801561001057600080fd5b5060405161122938038061122983398101604081905261002f916100b1565b61003833610061565b60018055600280546001600160a01b0319166001600160a01b03929092169190911790556100e1565b600080546001600160a01b038381166001600160a01b0319831681178455604051919092169283917f8be0079c531659141344cd1fd0a4f28419497f9722a3daafe3b4186f6b6457e09190a35050565b6000602082840312156100c357600080fd5b81516001600160a01b03811681146100da57600080fd5b9392505050565b611139806100f06000396000f3fe608060405234801561001057600080fd5b50600436106100b45760003560e01c80638c590917116100715780638c590917146102405780638c7ef2bc146102535780638da5cb5b14610266578063d20fc0b914610277578063d493ed311461028a578063f2fde38b1461029d57600080fd5b80632e0c3f3c146100b95780633aeb5305146100f7578063441a3e701461012257806345914b6114610137578063715018a61461022557806373355b981461022d575b600080fd5b6100e46100c7366004610f54565b336000908152600560209081526040808320938352929052205490565b6040519081526020015b60405180910390f35b60025461010a906001600160a01b031681565b6040516001600160a01b0390911681526020016100ee565b610135610130366004610f6d565b6102b0565b005b6101d7610145366004610f54565b6040805160a08101825260008082526020820181905291810182905260608101829052608081019190915250600090815260046020908152604091829020825160a08101845281546001600160a01b0316815260018201549281019290925260028101549282019290925260039091015463ffffffff81166060830152640100000000900460ff161515608082015290565b6040516100ee919081516001600160a01b03168152602080830151908201526040808301519082015260608083015163ffffffff169082015260809182015115159181019190915260a00190565b6101356104db565b61013561023b366004610f6d565b6104ef565b61013561024e366004610f6d565b6105ee565b610135610261366004610f54565b6107fe565b6000546001600160a01b031661010a565b610135610285366004610f54565b6108e5565b610135610298366004610fa8565b610a76565b6101356102ab366004610fdb565b610c1c565b6102b8610c97565b600082815260046020526040902060030154640100000000900460ff166102f257604051630a3b10f960e41b815260040160405180910390fd5b600082815260046020526040902060020154421080159061032a575060008281526004602052604090206003015463ffffffff164211155b156103485760405163f7a84a1360e01b815260040160405180910390fd5b3360009081526005602090815260408083208584529091529020548111156103835760405163df8201bb60e01b815260040160405180910390fd5b60025460405163a9059cbb60e01b8152336004820152602481018390526000916001600160a01b03169063a9059cbb906044016020604051808303816000875af11580156103d5573d6000803e3d6000fd5b505050506040513d601f19601f820116820180604052508101906103f9919061100b565b905080610419576040516364804c8960e01b815260040160405180910390fd5b600083815260046020526040902060010154610436908390611043565b600084815260046020908152604080832060010193909355338252600581528282208683529052205461046a908390611043565b3360009081526005602090815260408083208784529091528120919091556104959084908490610cf0565b604051828152339084907f9da6493a92039daf47d1f2d7a782299c5994c6323eb1e972f69c432089ec52bf906020015b60405180910390a3506104d760018055565b5050565b6104e3610eaa565b6104ed6000610f04565b565b6104f7610c97565b600082815260046020526040902060030154640100000000900460ff1661053157604051630a3b10f960e41b815260040160405180910390fd5b6000828152600460205260409020546001600160a01b0316331461056857604051637817106960e11b815260040160405180910390fd5b60008281526004602052604090206001015461058590829061105c565b60046000848152602001908152602001600020600101819055506105ab82826001610cf0565b817fd8f3ae02e925132c63880bfef62c07056fcf579f2b538a88a00c003465ad9896826040516105dd91815260200190565b60405180910390a26104d760018055565b6105f6610c97565b600082815260046020526040902060030154640100000000900460ff1661063057604051630a3b10f960e41b815260040160405180910390fd5b6000828152600460205260409020600201544210801590610668575060008281526004602052604090206003015463ffffffff164211155b156106865760405163f7a84a1360e01b815260040160405180910390fd5b6002546040516323b872dd60e01b8152336004820152306024820152604481018390526000916001600160a01b0316906323b872dd906064016020604051808303816000875af11580156106de573d6000803e3d6000fd5b505050506040513d601f19601f82011682018060405250810190610702919061100b565b9050806107225760405163cb5d6db560e01b815260040160405180910390fd5b60008381526006602090815260408083208054600181810183559185528385200180546001600160a01b031916331790558684526004909252909120015461076b90839061105c565b600084815260046020908152604080832060010193909355338252600581528282208683529052205461079f90839061105c565b3360009081526005602090815260408083208784529091528120919091556107ca9084908490610cf0565b604051828152339084907fae8785da7bae7df1ae7a3d1838c261e59d1c7294715e21a2d56b9968650a73f4906020016104c5565b6000818152600460205260409020546001600160a01b0316331461083557604051637817106960e11b815260040160405180910390fd5b6000818152600460205260409020600201544211801561086d57506000818152600460205260409020600301544263ffffffff909116115b1561088b57604051637381433560e11b815260040160405180910390fd5b60008181526004602052604090819020600301805464ff0000000019169055517fcdb5528ea98158b815891790bca83130d4f35e78eac9ca15e417807d23e3970f906108da9083815260200190565b60405180910390a150565b6108ed610c97565b600081815260046020526040902060030154640100000000900460ff161561092857604051637d4925f160e11b815260040160405180910390fd5b336000908152600560209081526040808320848452909152812054908190036109645760405163976ba40960e01b815260040160405180910390fd5b60025460405163a9059cbb60e01b8152336004820152602481018390526000916001600160a01b03169063a9059cbb906044016020604051808303816000875af11580156109b6573d6000803e3d6000fd5b505050506040513d601f19601f820116820180604052508101906109da919061100b565b9050806109fa5760405163ba868ced60e01b815260040160405180910390fd5b600083815260046020526040902060010154610a17908390611043565b60008481526004602090815260409182902060010192909255805185815291820184905233917fa8a5604cc91134d28fa1a118896ae4e252603bc82c2cf1d575a8af40d231edf6910160405180910390a25050610a7360018055565b50565b610a83426201518061105c565b63ffffffff168263ffffffff161015610aaf57604051636f3f4c9560e11b815260040160405180910390fd5b8063ffffffff168263ffffffff161115610adc57604051636cefd9a160e11b815260040160405180910390fd5b6276a700610aea838361106f565b63ffffffff161015610b0f5760405163205255a760e21b815260040160405180910390fd5b6040805160a08101825233815260006020820181905263ffffffff8086169383019390935291831660608201526001608082015290610b4d60035490565b9050610b5d600380546001019055565b600081815260046020908152604091829020845181546001600160a01b039091166001600160a01b031990911617815584820151600182015584830151600282015560608086015160039092018054608088015115156401000000000264ffffffffff1990911663ffffffff948516171790558351858152888316938101939093529086169282019290925233917f15127e41d49385a141956866c4aa762c1134cbe6a8c6a59ea14ea83e12efa079910160405180910390a250505050565b610c24610eaa565b6001600160a01b038116610c8e5760405162461bcd60e51b815260206004820152602660248201527f4f776e61626c653a206e6577206f776e657220697320746865207a65726f206160448201526564647265737360d01b60648201526084015b60405180910390fd5b610a7381610f04565b600260015403610ce95760405162461bcd60e51b815260206004820152601f60248201527f5265656e7472616e637947756172643a207265656e7472616e742063616c6c006044820152606401610c85565b6002600155565b8015610de45760005b600084815260066020526040902054811015610dde576000848152600660205260408120805483908110610d2f57610d2f611093565b60009182526020808320909101548783526007825260408084206001600160a01b0390921680855291909252912054909150606490610d6f9086906110a9565b610d7991906110c8565b6001600160a01b0382166000908152600560209081526040808320898452909152902054610da7919061105c565b6001600160a01b03909116600090815260056020908152604080832088845290915290205580610dd6816110ea565b915050610cf9565b50505050565b60005b600084815260066020526040902054811015610dde576000848152600660205260408120805483908110610e1d57610e1d611093565b6000918252602080832090910154878352600482526040808420600101546001600160a01b03909216808552600584528185208a865290935290922054909250610e689060646110a9565b610e7291906110c8565b60008681526007602090815260408083206001600160a01b039095168352939052919091205580610ea2816110ea565b915050610de7565b6000546001600160a01b031633146104ed5760405162461bcd60e51b815260206004820181905260248201527f4f776e61626c653a2063616c6c6572206973206e6f7420746865206f776e65726044820152606401610c85565b600080546001600160a01b038381166001600160a01b0319831681178455604051919092169283917f8be0079c531659141344cd1fd0a4f28419497f9722a3daafe3b4186f6b6457e09190a35050565b600060208284031215610f6657600080fd5b5035919050565b60008060408385031215610f8057600080fd5b50508035926020909101359150565b803563ffffffff81168114610fa357600080fd5b919050565b60008060408385031215610fbb57600080fd5b610fc483610f8f565b9150610fd260208401610f8f565b90509250929050565b600060208284031215610fed57600080fd5b81356001600160a01b038116811461100457600080fd5b9392505050565b60006020828403121561101d57600080fd5b8151801515811461100457600080fd5b634e487b7160e01b600052601160045260246000fd5b818103818111156110565761105661102d565b92915050565b808201808211156110565761105661102d565b63ffffffff82811682821603908082111561108c5761108c61102d565b5092915050565b634e487b7160e01b600052603260045260246000fd5b60008160001904831182151516156110c3576110c361102d565b500290565b6000826110e557634e487b7160e01b600052601260045260246000fd5b500490565b6000600182016110fc576110fc61102d565b506001019056fea264697066735822122022489a09fdf220909ac84b0acc0c14a9a6854c547b9e980bcd31ce44e2d297cf64736f6c63430008100033",
    "linkReferences": {}
  },
  "methodIdentifiers": {
    "addRewardETHPool(uint256,uint256)": "73355b98",
    "contribute(uint256,uint256)": "8c590917",
    "getETHPool(uint256)": "45914b61",
    "getUserBalance(uint256)": "2e0c3f3c",
    "launchETHPool(uint32,uint32)": "d493ed31",
    "owner()": "8da5cb5b",
    "refundETHPool(uint256)": "d20fc0b9",
    "renounceOwnership()": "715018a6",
    "s_ETHPoolToken()": "3aeb5305",
    "stopETHPool(uint256)": "8c7ef2bc",
    "transferOwnership(address)": "f2fde38b",
    "withdraw(uint256,uint256)": "441a3e70"
  },
  "id": 12
}